:1000000012C019C018C017C017C015C014C013C043
:1000100012C011C010C00FC00EC00DC017C00BC061
:100020000AC009C008C011241FBECFE5D4E0DEBF5E
:10003000CDBF21D02BC0E4CF1F920F920FB60F92ED
:1000400011240F900FBE0F901F9018951F920F92C2
:100050000FB60F9211248F9387B1803219F481E289
:1000600087B902C080E287B9369A8F910F900FBE90
:100070000F901F90189588E087BB80E287BB8BEFBD
:1000800081BB8EEF84BB8DEF84BBFFCFF894FFCF95
:00000001FF
