:1000000012C024C023C022C022C020C01FC01EC0F6
:100010001DC01CC01BC01AC019C018C022C016C009
:1000200015C014C013C011241FBECFE5D4E0DEBF3D
:10003000CDBF10E0A0E6B0E0E2ECF0E002C0059039
:100040000D92A236B107D9F72DD039C0D9CF1F9262
:100050000F920FB60F9211240F900FBE0F901F90AA
:1000600018951F920F920FB60F9211248F9387B19C
:10007000803631F485B18093610081E687B905C08F
:1000800085B18093600080E687B9369A8F910F9092
:100090000FBE0F901F90189580E687B98EE886B93D
:1000A000369A089588E087BB80E287BB8BEF81BBDF
:1000B0008EEF84BB8DEF84BBEFDF7894FFCFF89495
:0200C000FFCF70
:0200C200FFFF3E
:00000001FF
