S0170000496E676563746F72436F6E74726F6C2E73726563F1
S113000012C024C023C022C022C020C01FC01EC0F2
S11300101DC01CC01BC01AC019C018C022C016C005
S113002015C014C013C011241FBECFE5D4E0DEBF39
S1130030CDBF10E0A0E6B0E0E6EAF0E002C0059033
S11300400D92A036B107D9F721D02BC0D9CF1F927A
S11300500F920FB60F9211240F900FBE0F901F90A6
S113006018951F920F920FB60F9211248F9387B198
S1130070803219F481E287B902C080E287B9369AE6
S11300808F910F900FBE0F901F90189588E087BB3B
S113009080E287BB8BEF81BB8EEF84BB8DEF84BB8B
S10900A0FFCFF894FFCF2E
S9030000FC
